{
  "contractName": "Viewing",
  "abi": [
    {
      "constant": true,
      "inputs": [
        {
          "internalType": "uint256",
          "name": "",
          "type": "uint256"
        }
      ],
      "name": "viewers",
      "outputs": [
        {
          "internalType": "address",
          "name": "",
          "type": "address"
        }
      ],
      "payable": false,
      "stateMutability": "view",
      "type": "function"
    },
    {
      "constant": false,
      "inputs": [
        {
          "internalType": "uint256",
          "name": "patientId",
          "type": "uint256"
        }
      ],
      "name": "viewing",
      "outputs": [
        {
          "internalType": "uint256",
          "name": "",
          "type": "uint256"
        }
      ],
      "payable": false,
      "stateMutability": "nonpayable",
      "type": "function"
    },
    {
      "constant": true,
      "inputs": [],
      "name": "getViewers",
      "outputs": [
        {
          "internalType": "address[16]",
          "name": "",
          "type": "address[16]"
        }
      ],
      "payable": false,
      "stateMutability": "view",
      "type": "function"
    }
  ],
  "bytecode": "0x608060405234801561001057600080fd5b506102b9806100206000396000f3fe608060405234801561001057600080fd5b50600436106100415760003560e01c80635155cb16146100465780638dd137d9146100b4578063976bf825146100fa575b600080fd5b6100726004803603602081101561005c57600080fd5b810190808035906020019092919050505061013c565b604051808273ffffffffffffffffffffffffffffffffffffffff1673ffffffffffffffffffffffffffffffffffffffff16815260200191505060405180910390f35b6100bc61016f565b6040518082601060200280838360005b838110156100e75780820151818401526020810190506100cc565b5050505090500191505060405180910390f35b6101266004803603602081101561011057600080fd5b81019080803590602001909291905050506101f0565b6040518082815260200191505060405180910390f35b6000816010811061014957fe5b016000915054906101000a900473ffffffffffffffffffffffffffffffffffffffff1681565b610177610261565b60006010806020026040519081016040528092919082601080156101e6576020028201915b8160009054906101000a900473ffffffffffffffffffffffffffffffffffffffff1673ffffffffffffffffffffffffffffffffffffffff168152602001906001019080831161019c575b5050505050905090565b60008082101580156102035750600f8211155b61020c57600080fd5b336000836010811061021a57fe5b0160006101000a81548173ffffffffffffffffffffffffffffffffffffffff021916908373ffffffffffffffffffffffffffffffffffffffff160217905550819050919050565b60405180610200016040528060109060208202803883398082019150509050509056fea265627a7a7231582051c986ad19c5dbe84f79d1bd0113ade565942a9dbcba50d445ecbd0dab15593c64736f6c63430005100032",
  "source": "pragma solidity ^0.5.0;\r\n\r\ncontract Viewing {\r\n\taddress[16] public viewers;\r\n\t\r\n\t// Viewing a patient\r\n\tfunction viewing(uint patientId) public returns (uint) {\r\n\t  require(patientId >= 0 && patientId <= 15);\r\n\r\n\t  viewers[patientId] = msg.sender;\r\n\r\n\t  return patientId;\r\n\t}\r\n\t\r\n\t// Retrieving the viewers\r\n\tfunction getViewers() public view returns (address[16] memory) {\r\n\t  return viewers;\r\n\t}\r\n}",
  "sourcePath": "C:\\Users\\szymo\\Desktop\\College Year3\\Group Project\\Medi-Coin\\Blockchain\\contracts\\Viewing.sol",
  "compiler": {
    "name": "solc",
    "version": "0.5.16+commit.9c3226ce.Emscripten.clang"
  },
  "schemaVersion": "3.4.3",
  "updatedAt": "2021-11-14T19:49:09.873Z",
  "devdoc": {
    "methods": {}
  },
  "userdoc": {
    "methods": {}
  }
}