{
  "contractName": "Patients",
  "abi": [
    {
      "constant": true,
      "inputs": [
        {
          "name": "",
          "type": "uint256"
        }
      ],
      "name": "patientDetails",
      "outputs": [
        {
          "name": "id",
          "type": "uint256"
        },
        {
          "name": "name",
          "type": "string"
        },
        {
          "name": "addr",
          "type": "string"
        },
        {
          "name": "email",
          "type": "string"
        },
        {
          "name": "tel",
          "type": "string"
        },
        {
          "name": "wallet",
          "type": "string"
        }
      ],
      "payable": false,
      "stateMutability": "view",
      "type": "function",
      "signature": "0x7e4f5e4c"
    },
    {
      "constant": true,
      "inputs": [],
      "name": "patientCount",
      "outputs": [
        {
          "name": "",
          "type": "uint256"
        }
      ],
      "payable": false,
      "stateMutability": "view",
      "type": "function",
      "signature": "0xa0303c41"
    },
    {
      "inputs": [],
      "payable": false,
      "stateMutability": "nonpayable",
      "type": "constructor",
      "signature": "constructor"
    },
    {
      "constant": false,
      "inputs": [
        {
          "name": "_name",
          "type": "string"
        },
        {
          "name": "_addr",
          "type": "string"
        },
        {
          "name": "_email",
          "type": "string"
        },
        {
          "name": "_tel",
          "type": "string"
        },
        {
          "name": "_wallet",
          "type": "string"
        }
      ],
      "name": "createPatient",
      "outputs": [],
      "payable": false,
      "stateMutability": "nonpayable",
      "type": "function",
      "signature": "0x1ba0cf08"
    }
  ],
  "bytecode": "0x60806040526000805534801561001457600080fd5b50604080518082018252600f81527f4669727374204c617374204e616d65000000000000000000000000000000000060208083019190915282518084018452600781527f41646472657373000000000000000000000000000000000000000000000000008183015283518085018552600581527f456d61696c0000000000000000000000000000000000000000000000000000008184015284518086018652600a81527f3031323334353637383900000000000000000000000000000000000000000000818501528551808701909652600e86527f57616c6c6574204164647265737300000000000000000000000000000000000093860193909352610126949192909164010000000061012b810204565b6102a2565b6000805460019081018083556040805160c08101825282815260208082018b81528284018b9052606083018a90526080830189905260a08301889052938652848152919094208451815591518051929361018d93908501929190910190610207565b50604082015180516101a9916002840191602090910190610207565b50606082015180516101c5916003840191602090910190610207565b50608082015180516101e1916004840191602090910190610207565b5060a082015180516101fd916005840191602090910190610207565b5050505050505050565b828054600181600116156101000203166002900490600052602060002090601f016020900481019282601f1061024857805160ff1916838001178555610275565b82800160010185558215610275579182015b8281111561027557825182559160200191906001019061025a565b50610281929150610285565b5090565b61029f91905b80821115610281576000815560010161028b565b90565b610a2580620002b26000396000f3fe6080604052600436106100565763ffffffff7c01000000000000000000000000000000000000000000000000000000006000350416631ba0cf08811461005b5780637e4f5e4c1461032c578063a0303c411461056d575b600080fd5b34801561006757600080fd5b5061032a600480360360a081101561007e57600080fd5b81019060208101813564010000000081111561009957600080fd5b8201836020820111156100ab57600080fd5b803590602001918460018302840111640100000000831117156100cd57600080fd5b91908080601f016020809104026020016040519081016040528093929190818152602001838380828437600092019190915250929594936020810193503591505064010000000081111561012057600080fd5b82018360208201111561013257600080fd5b8035906020019184600183028401116401000000008311171561015457600080fd5b91908080601f01602080910402602001604051908101604052809392919081815260200183838082843760009201919091525092959493602081019350359150506401000000008111156101a757600080fd5b8201836020820111156101b957600080fd5b803590602001918460018302840111640100000000831117156101db57600080fd5b91908080601f016020809104026020016040519081016040528093929190818152602001838380828437600092019190915250929594936020810193503591505064010000000081111561022e57600080fd5b82018360208201111561024057600080fd5b8035906020019184600183028401116401000000008311171561026257600080fd5b91908080601f01602080910402602001604051908101604052809392919081815260200183838082843760009201919091525092959493602081019350359150506401000000008111156102b557600080fd5b8201836020820111156102c757600080fd5b803590602001918460018302840111640100000000831117156102e957600080fd5b91908080601f016020809104026020016040519081016040528093929190818152602001838380828437600092019190915250929550610594945050505050565b005b34801561033857600080fd5b506103566004803603602081101561034f57600080fd5b5035610670565b60405180878152602001806020018060200180602001806020018060200186810386528b818151815260200191508051906020019080838360005b838110156103a9578181015183820152602001610391565b50505050905090810190601f1680156103d65780820380516001836020036101000a031916815260200191505b5086810385528a5181528a516020918201918c019080838360005b838110156104095781810151838201526020016103f1565b50505050905090810190601f1680156104365780820380516001836020036101000a031916815260200191505b5086810384528951815289516020918201918b019080838360005b83811015610469578181015183820152602001610451565b50505050905090810190601f1680156104965780820380516001836020036101000a031916815260200191505b5086810383528851815288516020918201918a019080838360005b838110156104c95781810151838201526020016104b1565b50505050905090810190601f1680156104f65780820380516001836020036101000a031916815260200191505b50868103825287518152875160209182019189019080838360005b83811015610529578181015183820152602001610511565b50505050905090810190601f1680156105565780820380516001836020036101000a031916815260200191505b509b50505050505050505050505060405180910390f35b34801561057957600080fd5b50610582610958565b60408051918252519081900360200190f35b6000805460019081018083556040805160c08101825282815260208082018b81528284018b9052606083018a90526080830189905260a0830188905293865284815291909420845181559151805192936105f69390850192919091019061095e565b506040820151805161061291600284019160209091019061095e565b506060820151805161062e91600384019160209091019061095e565b506080820151805161064a91600484019160209091019061095e565b5060a0820151805161066691600584019160209091019061095e565b5050505050505050565b600160208181526000928352604092839020805481840180548651600296821615610100026000190190911695909504601f8101859004850286018501909652858552909491939290919083018282801561070c5780601f106106e15761010080835404028352916020019161070c565b820191906000526020600020905b8154815290600101906020018083116106ef57829003601f168201915b50505060028085018054604080516020601f600019610100600187161502019094169590950492830185900485028101850190915281815295969594509092509083018282801561079e5780601f106107735761010080835404028352916020019161079e565b820191906000526020600020905b81548152906001019060200180831161078157829003601f168201915b5050505060038301805460408051602060026001851615610100026000190190941693909304601f810184900484028201840190925281815294959493509083018282801561082e5780601f106108035761010080835404028352916020019161082e565b820191906000526020600020905b81548152906001019060200180831161081157829003601f168201915b5050505060048301805460408051602060026001851615610100026000190190941693909304601f81018490048402820184019092528181529495949350908301828280156108be5780601f10610893576101008083540402835291602001916108be565b820191906000526020600020905b8154815290600101906020018083116108a157829003601f168201915b5050505060058301805460408051602060026001851615610100026000190190941693909304601f810184900484028201840190925281815294959493509083018282801561094e5780601f106109235761010080835404028352916020019161094e565b820191906000526020600020905b81548152906001019060200180831161093157829003601f168201915b5050505050905086565b60005481565b828054600181600116156101000203166002900490600052602060002090601f016020900481019282601f1061099f57805160ff19168380011785556109cc565b828001600101855582156109cc579182015b828111156109cc5782518255916020019190600101906109b1565b506109d89291506109dc565b5090565b6109f691905b808211156109d857600081556001016109e2565b9056fea165627a7a723058206fe7623145eac7ecd2a438b4f2f78a2a80ed377466c258fe79196d5466261a0f0029",
  "source": "pragma solidity ^0.5.0;\r\n\r\ncontract Patients {\r\n    uint public patientCount = 0;\r\n\r\n    struct Details {\r\n        uint id;\r\n        string name;\r\n        string addr;\r\n        string email;\r\n        string tel;\r\n        string wallet;\r\n    }\r\n\r\n    mapping(uint => Details) public patientDetails;\r\n\r\n    constructor() public {\r\n        createPatient(\"First Last Name\", \"Address\", \"Email\", \"0123456789\", \"Wallet Address\");\r\n    }\r\n\r\n    function createPatient(string memory _name, string memory _addr, string memory _email, string memory _tel, string memory _wallet) public {\r\n        patientCount ++;\r\n        patientDetails[patientCount] = Details(patientCount, _name, _addr, _email, _tel, _wallet);\r\n  }\r\n\r\n}",
  "sourcePath": "D:/CIT/Y3/Semester 1/Group Project/Web Portal/contracts/Patients.sol",
  "compiler": {
    "name": "solc",
    "version": "0.5.0+commit.1d4f565a.Emscripten.clang"
  },
  "schemaVersion": "3.0.1",
  "updatedAt": "2021-12-18T19:58:21.807Z",
  "devdoc": {
    "methods": {}
  },
  "userdoc": {
    "methods": {}
  }
}